{"abi":[{"type":"constructor","inputs":[{"name":"_name","type":"string","internalType":"string"},{"name":"_symbol","type":"string","internalType":"string"}],"stateMutability":"nonpayable"},{"type":"function","name":"allowance","inputs":[{"name":"","type":"address","internalType":"address"},{"name":"","type":"address","internalType":"address"}],"outputs":[{"name":"","type":"uint256","internalType":"uint256"}],"stateMutability":"view"},{"type":"function","name":"approve","inputs":[{"name":"spender","type":"address","internalType":"address"},{"name":"amount","type":"uint256","internalType":"uint256"}],"outputs":[{"name":"","type":"bool","internalType":"bool"}],"stateMutability":"nonpayable"},{"type":"function","name":"balanceOf","inputs":[{"name":"","type":"address","internalType":"address"}],"outputs":[{"name":"","type":"uint256","internalType":"uint256"}],"stateMutability":"view"},{"type":"function","name":"decimals","inputs":[],"outputs":[{"name":"","type":"uint8","internalType":"uint8"}],"stateMutability":"view"},{"type":"function","name":"mint","inputs":[{"name":"to","type":"address","internalType":"address"},{"name":"amount","type":"uint256","internalType":"uint256"}],"outputs":[],"stateMutability":"nonpayable"},{"type":"function","name":"name","inputs":[],"outputs":[{"name":"","type":"string","internalType":"string"}],"stateMutability":"view"},{"type":"function","name":"symbol","inputs":[],"outputs":[{"name":"","type":"string","internalType":"string"}],"stateMutability":"view"},{"type":"function","name":"transfer","inputs":[{"name":"to","type":"address","internalType":"address"},{"name":"amount","type":"uint256","internalType":"uint256"}],"outputs":[{"name":"","type":"bool","internalType":"bool"}],"stateMutability":"nonpayable"},{"type":"function","name":"transferFrom","inputs":[{"name":"from","type":"address","internalType":"address"},{"name":"to","type":"address","internalType":"address"},{"name":"amount","type":"uint256","internalType":"uint256"}],"outputs":[{"name":"","type":"bool","internalType":"bool"}],"stateMutability":"nonpayable"}],"bytecode":{"object":"0x6080604052601260025f6101000a81548160ff021916908360ff16021790555034801561002a575f5ffd5b506040516110cf3803806110cf833981810160405281019061004c91906101bf565b815f908161005a9190610456565b50806001908161006a9190610456565b505050610525565b5f604051905090565b5f5ffd5b5f5ffd5b5f5ffd5b5f5ffd5b5f601f19601f8301169050919050565b7f4e487b71000000000000000000000000000000000000000000000000000000005f52604160045260245ffd5b6100d18261008b565b810181811067ffffffffffffffff821117156100f0576100ef61009b565b5b80604052505050565b5f610102610072565b905061010e82826100c8565b919050565b5f67ffffffffffffffff82111561012d5761012c61009b565b5b6101368261008b565b9050602081019050919050565b8281835e5f83830152505050565b5f61016361015e84610113565b6100f9565b90508281526020810184848401111561017f5761017e610087565b5b61018a848285610143565b509392505050565b5f82601f8301126101a6576101a5610083565b5b81516101b6848260208601610151565b91505092915050565b5f5f604083850312156101d5576101d461007b565b5b5f83015167ffffffffffffffff8111156101f2576101f161007f565b5b6101fe85828601610192565b925050602083015167ffffffffffffffff81111561021f5761021e61007f565b5b61022b85828601610192565b9150509250929050565b5f81519050919050565b7f4e487b71000000000000000000000000000000000000000000000000000000005f52602260045260245ffd5b5f600282049050600182168061028357607f821691505b6020821081036102965761029561023f565b5b50919050565b5f819050815f5260205f209050919050565b5f6020601f8301049050919050565b5f82821b905092915050565b5f600883026102f87fffffffffffffffffffffffffffffffffffffffffffffffffffffffffffffffff826102bd565b61030286836102bd565b95508019841693508086168417925050509392505050565b5f819050919050565b5f819050919050565b5f61034661034161033c8461031a565b610323565b61031a565b9050919050565b5f819050919050565b61035f8361032c565b61037361036b8261034d565b8484546102c9565b825550505050565b5f5f905090565b61038a61037b565b610395818484610356565b505050565b5f5b828110156103bb576103b05f828401610382565b60018101905061039c565b505050565b601f82111561040e578282111561040d576103da8161029c565b6103e3836102ae565b6103ec856102ae565b60208610156103f9575f90505b8083016104088284038261039a565b505050505b5b505050565b5f82821c905092915050565b5f61042e5f1984600802610413565b1980831691505092915050565b5f610446838361041f565b9150826002028217905092915050565b61045f82610235565b67ffffffffffffffff8111156104785761047761009b565b5b610482825461026c565b61048d8282856103c0565b5f60209050601f8311600181146104be575f84156104ac578287015190505b6104b6858261043b565b86555061051d565b601f1984166104cc8661029c565b5f5b828110156104f3578489015182556001820191506020850194506020810190506104ce565b86831015610510578489015161050c601f89168261041f565b8355505b6001600288020188555050505b505050505050565b610b9d806105325f395ff3fe608060405234801561000f575f5ffd5b5060043610610091575f3560e01c806340c10f191161006457806340c10f191461013157806370a082311461014d57806395d89b411461017d578063a9059cbb1461019b578063dd62ed3e146101cb57610091565b806306fdde0314610095578063095ea7b3146100b357806323b872dd146100e3578063313ce56714610113575b5f5ffd5b61009d6101fb565b6040516100aa9190610770565b60405180910390f35b6100cd60048036038101906100c89190610821565b610286565b6040516100da9190610879565b60405180910390f35b6100fd60048036038101906100f89190610892565b61030e565b60405161010a9190610879565b60405180910390f35b61011b610495565b60405161012891906108fd565b60405180910390f35b61014b60048036038101906101469190610821565b6104a7565b005b61016760048036038101906101629190610916565b6104fe565b6040516101749190610950565b60405180910390f35b610185610513565b6040516101929190610770565b60405180910390f35b6101b560048036038101906101b09190610821565b61059f565b6040516101c29190610879565b60405180910390f35b6101e560048036038101906101e09190610969565b6105b5565b6040516101f29190610950565b60405180910390f35b5f8054610207906109d4565b80601f0160208091040260200160405190810160405280929190818152602001828054610233906109d4565b801561027e5780601f106102555761010080835404028352916020019161027e565b820191905f5260205f20905b81548152906001019060200180831161026157829003601f168201915b505050505081565b5f8160045f3373ffffffffffffffffffffffffffffffffffffffff1673ffffffffffffffffffffffffffffffffffffffff1681526020019081526020015f205f8573ffffffffffffffffffffffffffffffffffffffff1673ffffffffffffffffffffffffffffffffffffffff1681526020019081526020015f20819055506001905092915050565b5f5f60045f8673ffffffffffffffffffffffffffffffffffffffff1673ffffffffffffffffffffffffffffffffffffffff1681526020019081526020015f205f3373ffffffffffffffffffffffffffffffffffffffff1673ffffffffffffffffffffffffffffffffffffffff1681526020019081526020015f20549050828110156103ce576040517f08c379a00000000000000000000000000000000000000000000000000000000081526004016103c590610a4e565b60405180910390fd5b7fffffffffffffffffffffffffffffffffffffffffffffffffffffffffffffffff811461047e5782816104019190610a99565b60045f8773ffffffffffffffffffffffffffffffffffffffff1673ffffffffffffffffffffffffffffffffffffffff1681526020019081526020015f205f3373ffffffffffffffffffffffffffffffffffffffff1673ffffffffffffffffffffffffffffffffffffffff1681526020019081526020015f20819055505b6104898585856105d5565b60019150509392505050565b60025f9054906101000a900460ff1681565b8060035f8473ffffffffffffffffffffffffffffffffffffffff1673ffffffffffffffffffffffffffffffffffffffff1681526020019081526020015f205f8282546104f39190610acc565b925050819055505050565b6003602052805f5260405f205f915090505481565b60018054610520906109d4565b80601f016020809104026020016040519081016040528092919081815260200182805461054c906109d4565b80156105975780601f1061056e57610100808354040283529160200191610597565b820191905f5260205f20905b81548152906001019060200180831161057a57829003601f168201915b505050505081565b5f6105ab3384846105d5565b6001905092915050565b6004602052815f5260405f20602052805f5260405f205f91509150505481565b8060035f8573ffffffffffffffffffffffffffffffffffffffff1673ffffffffffffffffffffffffffffffffffffffff1681526020019081526020015f20541015610655576040517f08c379a000000000000000000000000000000000000000000000000000000000815260040161064c90610b49565b60405180910390fd5b8060035f8573ffffffffffffffffffffffffffffffffffffffff1673ffffffffffffffffffffffffffffffffffffffff1681526020019081526020015f205f8282546106a19190610a99565b925050819055508060035f8473ffffffffffffffffffffffffffffffffffffffff1673ffffffffffffffffffffffffffffffffffffffff1681526020019081526020015f205f8282546106f49190610acc565b92505081905550505050565b5f81519050919050565b5f82825260208201905092915050565b8281835e5f83830152505050565b5f601f19601f8301169050919050565b5f61074282610700565b61074c818561070a565b935061075c81856020860161071a565b61076581610728565b840191505092915050565b5f6020820190508181035f8301526107888184610738565b905092915050565b5f5ffd5b5f73ffffffffffffffffffffffffffffffffffffffff82169050919050565b5f6107bd82610794565b9050919050565b6107cd816107b3565b81146107d7575f5ffd5b50565b5f813590506107e8816107c4565b92915050565b5f819050919050565b610800816107ee565b811461080a575f5ffd5b50565b5f8135905061081b816107f7565b92915050565b5f5f6040838503121561083757610836610790565b5b5f610844858286016107da565b92505060206108558582860161080d565b9150509250929050565b5f8115159050919050565b6108738161085f565b82525050565b5f60208201905061088c5f83018461086a565b92915050565b5f5f5f606084860312156108a9576108a8610790565b5b5f6108b6868287016107da565b93505060206108c7868287016107da565b92505060406108d88682870161080d565b9150509250925092565b5f60ff82169050919050565b6108f7816108e2565b82525050565b5f6020820190506109105f8301846108ee565b92915050565b5f6020828403121561092b5761092a610790565b5b5f610938848285016107da565b91505092915050565b61094a816107ee565b82525050565b5f6020820190506109635f830184610941565b92915050565b5f5f6040838503121561097f5761097e610790565b5b5f61098c858286016107da565b925050602061099d858286016107da565b9150509250929050565b7f4e487b71000000000000000000000000000000000000000000000000000000005f52602260045260245ffd5b5f60028204905060018216806109eb57607f821691505b6020821081036109fe576109fd6109a7565b5b50919050565b7f616c6c6f77616e636500000000000000000000000000000000000000000000005f82015250565b5f610a3860098361070a565b9150610a4382610a04565b602082019050919050565b5f6020820190508181035f830152610a6581610a2c565b9050919050565b7f4e487b71000000000000000000000000000000000000000000000000000000005f52601160045260245ffd5b5f610aa3826107ee565b9150610aae836107ee565b9250828203905081811115610ac657610ac5610a6c565b5b92915050565b5f610ad6826107ee565b9150610ae1836107ee565b9250828201905080821115610af957610af8610a6c565b5b92915050565b7f696e73756666696369656e7400000000000000000000000000000000000000005f82015250565b5f610b33600c8361070a565b9150610b3e82610aff565b602082019050919050565b5f6020820190508181035f830152610b6081610b27565b905091905056fea2646970667358221220a64927414b6f394ac25279f3c209046f94eae79d5f0427fdadf6ad4c42dcb15964736f6c63430008220033","linkReferences":{}},"methodIdentifiers":{"allowance(address,address)":"dd62ed3e","approve(address,uint256)":"095ea7b3","balanceOf(address)":"70a08231","decimals()":"313ce567","mint(address,uint256)":"40c10f19","name()":"06fdde03","symbol()":"95d89b41","transfer(address,uint256)":"a9059cbb","transferFrom(address,address,uint256)":"23b872dd"},"id":19}