{"abi":[{"type":"constructor","inputs":[{"name":"_stake","type":"address","internalType":"contract MockERC20"},{"name":"_reward","type":"address","internalType":"contract MockERC20"},{"name":"_rate","type":"uint256","internalType":"uint256"}],"stateMutability":"nonpayable"},{"type":"function","name":"accRewardPerShare","inputs":[],"outputs":[{"name":"","type":"uint256","internalType":"uint256"}],"stateMutability":"view"},{"type":"function","name":"deposit","inputs":[{"name":"amount","type":"uint256","internalType":"uint256"}],"outputs":[],"stateMutability":"nonpayable"},{"type":"function","name":"harvest","inputs":[],"outputs":[],"stateMutability":"nonpayable"},{"type":"function","name":"lastRewardTime","inputs":[],"outputs":[{"name":"","type":"uint256","internalType":"uint256"}],"stateMutability":"view"},{"type":"function","name":"pendingReward","inputs":[{"name":"who","type":"address","internalType":"address"}],"outputs":[{"name":"","type":"uint256","internalType":"uint256"}],"stateMutability":"view"},{"type":"function","name":"rewardRate","inputs":[],"outputs":[{"name":"","type":"uint256","internalType":"uint256"}],"stateMutability":"view"},{"type":"function","name":"rewardToken","inputs":[],"outputs":[{"name":"","type":"address","internalType":"contract MockERC20"}],"stateMutability":"view"},{"type":"function","name":"stakeToken","inputs":[],"outputs":[{"name":"","type":"address","internalType":"contract MockERC20"}],"stateMutability":"view"},{"type":"function","name":"totalStaked","inputs":[],"outputs":[{"name":"","type":"uint256","internalType":"uint256"}],"stateMutability":"view"},{"type":"function","name":"updatePool","inputs":[],"outputs":[],"stateMutability":"nonpayable"},{"type":"function","name":"users","inputs":[{"name":"","type":"address","internalType":"address"}],"outputs":[{"name":"amount","type":"uint256","internalType":"uint256"},{"name":"rewardDebt","type":"uint256","internalType":"uint256"}],"stateMutability":"view"}],"bytecode":{"object":"0x60e060405234801561000f575f5ffd5b50604051610d7f380380610d7f83398181016040528101906100319190610151565b8273ffffffffffffffffffffffffffffffffffffffff1660808173ffffffffffffffffffffffffffffffffffffffff16815250508173ffffffffffffffffffffffffffffffffffffffff1660a08173ffffffffffffffffffffffffffffffffffffffff16815250508060c08181525050425f819055505050506101a1565b5f5ffd5b5f73ffffffffffffffffffffffffffffffffffffffff82169050919050565b5f6100dc826100b3565b9050919050565b5f6100ed826100d2565b9050919050565b6100fd816100e3565b8114610107575f5ffd5b50565b5f81519050610118816100f4565b92915050565b5f819050919050565b6101308161011e565b811461013a575f5ffd5b50565b5f8151905061014b81610127565b92915050565b5f5f5f60608486031215610168576101676100af565b5b5f6101758682870161010a565b93505060206101868682870161010a565b92505060406101978682870161013d565b9150509250925092565b60805160a05160c051610b916101ee5f395f8181610363015281816105ff01526106f501525f818161027501528181610446015261079301525f818161033f01526104e50152610b915ff3fe608060405234801561000f575f5ffd5b50600436106100a7575f3560e01c8063939d62371161006f578063939d62371461012d578063a87430ba1461014b578063b6b55f251461017c578063e3161ddd14610198578063f40f0f52146101a2578063f7c618c1146101d2576100a7565b80634641257d146100ab57806351ed6a30146100b55780637b0a47ee146100d3578063817b1cd2146100f15780639231cf741461010f575b5f5ffd5b6100b36101f0565b005b6100bd61033d565b6040516100ca919061082f565b60405180910390f35b6100db610361565b6040516100e89190610860565b60405180910390f35b6100f9610385565b6040516101069190610860565b60405180910390f35b61011761038b565b6040516101249190610860565b60405180910390f35b610135610390565b6040516101429190610860565b60405180910390f35b610165600480360381019061016091906108b8565b610396565b6040516101739291906108e3565b60405180910390f35b61019660048036038101906101919190610934565b6103b6565b005b6101a06105df565b005b6101bc60048036038101906101b791906108b8565b610676565b6040516101c99190610860565b60405180910390f35b6101da610791565b6040516101e7919061082f565b60405180910390f35b6101f86105df565b5f60035f3373ffffffffffffffffffffffffffffffffffffffff1673ffffffffffffffffffffffffffffffffffffffff1681526020019081526020015f2090505f816001015464e8d4a51000600154845f0154610255919061098c565b61025f91906109fa565b6102699190610a2a565b90505f811115610310577f000000000000000000000000000000000000000000000000000000000000000073ffffffffffffffffffffffffffffffffffffffff1663a9059cbb33836040518363ffffffff1660e01b81526004016102ce929190610a6c565b6020604051808303815f875af11580156102ea573d5f5f3e3d5ffd5b505050506040513d601f19601f8201168201806040525081019061030e9190610ac8565b505b64e8d4a51000600154835f0154610327919061098c565b61033191906109fa565b82600101819055505050565b7f000000000000000000000000000000000000000000000000000000000000000081565b7f000000000000000000000000000000000000000000000000000000000000000081565b60025481565b5f5481565b60015481565b6003602052805f5260405f205f91509050805f0154908060010154905082565b6103be6105df565b5f60035f3373ffffffffffffffffffffffffffffffffffffffff1673ffffffffffffffffffffffffffffffffffffffff1681526020019081526020015f2090505f815f015411156104e3575f816001015464e8d4a51000600154845f0154610426919061098c565b61043091906109fa565b61043a9190610a2a565b90505f8111156104e1577f000000000000000000000000000000000000000000000000000000000000000073ffffffffffffffffffffffffffffffffffffffff1663a9059cbb33836040518363ffffffff1660e01b815260040161049f929190610a6c565b6020604051808303815f875af11580156104bb573d5f5f3e3d5ffd5b505050506040513d601f19601f820116820180604052508101906104df9190610ac8565b505b505b7f000000000000000000000000000000000000000000000000000000000000000073ffffffffffffffffffffffffffffffffffffffff166323b872dd3330856040518463ffffffff1660e01b815260040161054093929190610af3565b6020604051808303815f875af115801561055c573d5f5f3e3d5ffd5b505050506040513d601f19601f820116820180604052508101906105809190610ac8565b5081815f015f8282546105939190610b28565b925050819055508160025f8282546105ab9190610b28565b9250508190555064e8d4a51000600154825f01546105c9919061098c565b6105d391906109fa565b81600101819055505050565b5f54421115610674575f600254036105fc57425f81905550610674565b5f7f00000000000000000000000000000000000000000000000000000000000000005f544261062b9190610a2a565b610635919061098c565b905060025464e8d4a510008261064b919061098c565b61065591906109fa565b60015f8282546106659190610b28565b92505081905550425f81905550505b565b5f5f60035f8473ffffffffffffffffffffffffffffffffffffffff1673ffffffffffffffffffffffffffffffffffffffff1681526020019081526020015f206040518060400160405290815f820154815260200160018201548152505090505f60015490505f54421180156106ed57505f60025414155b1561075a575f7f00000000000000000000000000000000000000000000000000000000000000005f54426107219190610a2a565b61072b919061098c565b905060025464e8d4a5100082610741919061098c565b61074b91906109fa565b826107569190610b28565b9150505b816020015164e8d4a5100082845f0151610774919061098c565b61077e91906109fa565b6107889190610a2a565b92505050919050565b7f000000000000000000000000000000000000000000000000000000000000000081565b5f73ffffffffffffffffffffffffffffffffffffffff82169050919050565b5f819050919050565b5f6107f76107f26107ed846107b5565b6107d4565b6107b5565b9050919050565b5f610808826107dd565b9050919050565b5f610819826107fe565b9050919050565b6108298161080f565b82525050565b5f6020820190506108425f830184610820565b92915050565b5f819050919050565b61085a81610848565b82525050565b5f6020820190506108735f830184610851565b92915050565b5f5ffd5b5f610887826107b5565b9050919050565b6108978161087d565b81146108a1575f5ffd5b50565b5f813590506108b28161088e565b92915050565b5f602082840312156108cd576108cc610879565b5b5f6108da848285016108a4565b91505092915050565b5f6040820190506108f65f830185610851565b6109036020830184610851565b9392505050565b61091381610848565b811461091d575f5ffd5b50565b5f8135905061092e8161090a565b92915050565b5f6020828403121561094957610948610879565b5b5f61095684828501610920565b91505092915050565b7f4e487b71000000000000000000000000000000000000000000000000000000005f52601160045260245ffd5b5f61099682610848565b91506109a183610848565b92508282026109af81610848565b915082820484148315176109c6576109c561095f565b5b5092915050565b7f4e487b71000000000000000000000000000000000000000000000000000000005f52601260045260245ffd5b5f610a0482610848565b9150610a0f83610848565b925082610a1f57610a1e6109cd565b5b828204905092915050565b5f610a3482610848565b9150610a3f83610848565b9250828203905081811115610a5757610a5661095f565b5b92915050565b610a668161087d565b82525050565b5f604082019050610a7f5f830185610a5d565b610a8c6020830184610851565b9392505050565b5f8115159050919050565b610aa781610a93565b8114610ab1575f5ffd5b50565b5f81519050610ac281610a9e565b92915050565b5f60208284031215610add57610adc610879565b5b5f610aea84828501610ab4565b91505092915050565b5f606082019050610b065f830186610a5d565b610b136020830185610a5d565b610b206040830184610851565b949350505050565b5f610b3282610848565b9150610b3d83610848565b9250828201905080821115610b5557610b5461095f565b5b9291505056fea2646970667358221220fcb27e35190009c37ec218389e56b8a7af5f162763bf76b6225ea908d3879d1764736f6c63430008220033","linkReferences":{}},"methodIdentifiers":{"accRewardPerShare()":"939d6237","deposit(uint256)":"b6b55f25","harvest()":"4641257d","lastRewardTime()":"9231cf74","pendingReward(address)":"f40f0f52","rewardRate()":"7b0a47ee","rewardToken()":"f7c618c1","stakeToken()":"51ed6a30","totalStaked()":"817b1cd2","updatePool()":"e3161ddd","users(address)":"a87430ba"},"id":20}