{"abi":[{"type":"constructor","inputs":[{"name":"_stake","type":"address","internalType":"contract MockERC20"},{"name":"_reward","type":"address","internalType":"contract MockERC20"},{"name":"_rate","type":"uint256","internalType":"uint256"}],"stateMutability":"nonpayable"},{"type":"function","name":"accRewardPerShare","inputs":[],"outputs":[{"name":"","type":"uint256","internalType":"uint256"}],"stateMutability":"view"},{"type":"function","name":"deposit","inputs":[{"name":"amount","type":"uint256","internalType":"uint256"}],"outputs":[],"stateMutability":"nonpayable"},{"type":"function","name":"harvest","inputs":[],"outputs":[],"stateMutability":"nonpayable"},{"type":"function","name":"lastRewardTime","inputs":[],"outputs":[{"name":"","type":"uint256","internalType":"uint256"}],"stateMutability":"view"},{"type":"function","name":"pendingReward","inputs":[{"name":"who","type":"address","internalType":"address"}],"outputs":[{"name":"","type":"uint256","internalType":"uint256"}],"stateMutability":"view"},{"type":"function","name":"rewardRate","inputs":[],"outputs":[{"name":"","type":"uint256","internalType":"uint256"}],"stateMutability":"view"},{"type":"function","name":"rewardToken","inputs":[],"outputs":[{"name":"","type":"address","internalType":"contract MockERC20"}],"stateMutability":"view"},{"type":"function","name":"stakeToken","inputs":[],"outputs":[{"name":"","type":"address","internalType":"contract MockERC20"}],"stateMutability":"view"},{"type":"function","name":"totalStaked","inputs":[],"outputs":[{"name":"","type":"uint256","internalType":"uint256"}],"stateMutability":"view"},{"type":"function","name":"updatePool","inputs":[],"outputs":[],"stateMutability":"nonpayable"},{"type":"function","name":"users","inputs":[{"name":"","type":"address","internalType":"address"}],"outputs":[{"name":"amount","type":"uint256","internalType":"uint256"},{"name":"rewardDebt","type":"uint256","internalType":"uint256"}],"stateMutability":"view"}],"bytecode":{"object":"0x60e060405234801561000f575f5ffd5b50604051610d77380380610d7783398181016040528101906100319190610151565b8273ffffffffffffffffffffffffffffffffffffffff1660808173ffffffffffffffffffffffffffffffffffffffff16815250508173ffffffffffffffffffffffffffffffffffffffff1660a08173ffffffffffffffffffffffffffffffffffffffff16815250508060c08181525050425f819055505050506101a1565b5f5ffd5b5f73ffffffffffffffffffffffffffffffffffffffff82169050919050565b5f6100dc826100b3565b9050919050565b5f6100ed826100d2565b9050919050565b6100fd816100e3565b8114610107575f5ffd5b50565b5f81519050610118816100f4565b92915050565b5f819050919050565b6101308161011e565b811461013a575f5ffd5b50565b5f8151905061014b81610127565b92915050565b5f5f5f60608486031215610168576101676100af565b5b5f6101758682870161010a565b93505060206101868682870161010a565b92505060406101978682870161013d565b9150509250925092565b60805160a05160c051610b896101ee5f395f8181610363015281816105f701526106ed01525f81816102750152818161043e015261078b01525f818161033f01526104dd0152610b895ff3fe608060405234801561000f575f5ffd5b50600436106100a7575f3560e01c8063939d62371161006f578063939d62371461012d578063a87430ba1461014b578063b6b55f251461017c578063e3161ddd14610198578063f40f0f52146101a2578063f7c618c1146101d2576100a7565b80634641257d146100ab57806351ed6a30146100b55780637b0a47ee146100d3578063817b1cd2146100f15780639231cf741461010f575b5f5ffd5b6100b36101f0565b005b6100bd61033d565b6040516100ca9190610827565b60405180910390f35b6100db610361565b6040516100e89190610858565b60405180910390f35b6100f9610385565b6040516101069190610858565b60405180910390f35b61011761038b565b6040516101249190610858565b60405180910390f35b610135610390565b6040516101429190610858565b60405180910390f35b610165600480360381019061016091906108b0565b610396565b6040516101739291906108db565b60405180910390f35b6101966004803603810190610191919061092c565b6103b6565b005b6101a06105d7565b005b6101bc60048036038101906101b791906108b0565b61066e565b6040516101c99190610858565b60405180910390f35b6101da610789565b6040516101e79190610827565b60405180910390f35b6101f86105d7565b5f60035f3373ffffffffffffffffffffffffffffffffffffffff1673ffffffffffffffffffffffffffffffffffffffff1681526020019081526020015f2090505f816001015464e8d4a51000600154845f01546102559190610984565b61025f91906109f2565b6102699190610a22565b90505f811115610310577f000000000000000000000000000000000000000000000000000000000000000073ffffffffffffffffffffffffffffffffffffffff1663a9059cbb33836040518363ffffffff1660e01b81526004016102ce929190610a64565b6020604051808303815f875af11580156102ea573d5f5f3e3d5ffd5b505050506040513d601f19601f8201168201806040525081019061030e9190610ac0565b505b64e8d4a51000600154835f01546103279190610984565b61033191906109f2565b82600101819055505050565b7f000000000000000000000000000000000000000000000000000000000000000081565b7f000000000000000000000000000000000000000000000000000000000000000081565b60025481565b5f5481565b60015481565b6003602052805f5260405f205f91509050805f0154908060010154905082565b5f60035f3373ffffffffffffffffffffffffffffffffffffffff1673ffffffffffffffffffffffffffffffffffffffff1681526020019081526020015f2090505f815f015411156104db575f816001015464e8d4a51000600154845f015461041e9190610984565b61042891906109f2565b6104329190610a22565b90505f8111156104d9577f000000000000000000000000000000000000000000000000000000000000000073ffffffffffffffffffffffffffffffffffffffff1663a9059cbb33836040518363ffffffff1660e01b8152600401610497929190610a64565b6020604051808303815f875af11580156104b3573d5f5f3e3d5ffd5b505050506040513d601f19601f820116820180604052508101906104d79190610ac0565b505b505b7f000000000000000000000000000000000000000000000000000000000000000073ffffffffffffffffffffffffffffffffffffffff166323b872dd3330856040518463ffffffff1660e01b815260040161053893929190610aeb565b6020604051808303815f875af1158015610554573d5f5f3e3d5ffd5b505050506040513d601f19601f820116820180604052508101906105789190610ac0565b5081815f015f82825461058b9190610b20565b925050819055508160025f8282546105a39190610b20565b9250508190555064e8d4a51000600154825f01546105c19190610984565b6105cb91906109f2565b81600101819055505050565b5f5442111561066c575f600254036105f457425f8190555061066c565b5f7f00000000000000000000000000000000000000000000000000000000000000005f54426106239190610a22565b61062d9190610984565b905060025464e8d4a51000826106439190610984565b61064d91906109f2565b60015f82825461065d9190610b20565b92505081905550425f81905550505b565b5f5f60035f8473ffffffffffffffffffffffffffffffffffffffff1673ffffffffffffffffffffffffffffffffffffffff1681526020019081526020015f206040518060400160405290815f820154815260200160018201548152505090505f60015490505f54421180156106e557505f60025414155b15610752575f7f00000000000000000000000000000000000000000000000000000000000000005f54426107199190610a22565b6107239190610984565b905060025464e8d4a51000826107399190610984565b61074391906109f2565b8261074e9190610b20565b9150505b816020015164e8d4a5100082845f015161076c9190610984565b61077691906109f2565b6107809190610a22565b92505050919050565b7f000000000000000000000000000000000000000000000000000000000000000081565b5f73ffffffffffffffffffffffffffffffffffffffff82169050919050565b5f819050919050565b5f6107ef6107ea6107e5846107ad565b6107cc565b6107ad565b9050919050565b5f610800826107d5565b9050919050565b5f610811826107f6565b9050919050565b61082181610807565b82525050565b5f60208201905061083a5f830184610818565b92915050565b5f819050919050565b61085281610840565b82525050565b5f60208201905061086b5f830184610849565b92915050565b5f5ffd5b5f61087f826107ad565b9050919050565b61088f81610875565b8114610899575f5ffd5b50565b5f813590506108aa81610886565b92915050565b5f602082840312156108c5576108c4610871565b5b5f6108d28482850161089c565b91505092915050565b5f6040820190506108ee5f830185610849565b6108fb6020830184610849565b9392505050565b61090b81610840565b8114610915575f5ffd5b50565b5f8135905061092681610902565b92915050565b5f6020828403121561094157610940610871565b5b5f61094e84828501610918565b91505092915050565b7f4e487b71000000000000000000000000000000000000000000000000000000005f52601160045260245ffd5b5f61098e82610840565b915061099983610840565b92508282026109a781610840565b915082820484148315176109be576109bd610957565b5b5092915050565b7f4e487b71000000000000000000000000000000000000000000000000000000005f52601260045260245ffd5b5f6109fc82610840565b9150610a0783610840565b925082610a1757610a166109c5565b5b828204905092915050565b5f610a2c82610840565b9150610a3783610840565b9250828203905081811115610a4f57610a4e610957565b5b92915050565b610a5e81610875565b82525050565b5f604082019050610a775f830185610a55565b610a846020830184610849565b9392505050565b5f8115159050919050565b610a9f81610a8b565b8114610aa9575f5ffd5b50565b5f81519050610aba81610a96565b92915050565b5f60208284031215610ad557610ad4610871565b5b5f610ae284828501610aac565b91505092915050565b5f606082019050610afe5f830186610a55565b610b0b6020830185610a55565b610b186040830184610849565b949350505050565b5f610b2a82610840565b9150610b3583610840565b9250828201905080821115610b4d57610b4c610957565b5b9291505056fea2646970667358221220f2dff41689e82538b8462ea0e6b17a221516521b65be473182b9fd638f4ad7b764736f6c63430008220033","linkReferences":{}},"methodIdentifiers":{"accRewardPerShare()":"939d6237","deposit(uint256)":"b6b55f25","harvest()":"4641257d","lastRewardTime()":"9231cf74","pendingReward(address)":"f40f0f52","rewardRate()":"7b0a47ee","rewardToken()":"f7c618c1","stakeToken()":"51ed6a30","totalStaked()":"817b1cd2","updatePool()":"e3161ddd","users(address)":"a87430ba"},"id":20}